:020000040800F2
:1000000000180020010100084118000843160008EC
:100010003D180008F70100086B1B000800000000F5
:10002000000000000000000000000000711800083F
:100030000D020008000000004518000873180008B1
:100040001B0100081B0100081B0100081B01000820
:100050001B0100081B0100081B0100081B01000810
:100060001B0100081B0100081B0100081B01000800
:100070001B0100081B0100081B010008FD0100080E
:100080001B0100081B0100081B0100081B010008E0
:100090001B0100081B0100081B0100081B010008D0
:1000A0001B0100081B0100081B0100081B010008C0
:1000B000E11800081B0100081B0100081B010008D3
:1000C0001B0100081B0100081B0100081B010008A0
:1000D0001B0100081B0100081B0100081B01000890
:1000E0001B0100081B0100081B010008DFF80CD0F1
:1000F00000F040F80048004749210008001800209F
:100100000648804706480047FEE7FEE7FEE7FEE7B1
:10011000FEE7FEE7FEE7FEE7FEE7FEE7DD18000884
:10012000ED000008D2B201E000F8012B491EFBD21D
:1001300070470022F6E710B513460A4604461946F2
:10014000FFF7F0FF204610BD30B50B4601460020FA
:100150002022012409E021FA02F59D4205D303FA89
:1001600002F5491B04FA02F52844151EA2F101020A
:10017000F1DC30BD064C074D06E0E06840F00103BD
:1001800094E8070098471034AC42F6D3FFF7B2FF6B
:10019000642500088425000870B58D1810F8014BFF
:1001A00014F0030201D110F8012B231106D110F82D
:1001B000013B03E010F8016B01F8016B521EF9D10D
:1001C000ABB110F8012B04F00C048A1A0C2C03D0EC
:1001D000A2EB84129B1C08E010F8014BA2EB042256
:1001E000F8E712F8014B01F8014B5B1EF9D5A94263
:1001F000D4D3002070BD00BFFEE7000010B5024858
:1002000000F008F810BD0000BC130020704772B663
:1002100000BFFEE770B50446E06B0568206806681D
:1002200094F84010042088402840002846D006F06A
:100230000400002842D02068006800F0200028B99F
:100240002068006820F00400216808605749206891
:10025000884201D1042027E05449143120688842A3
:1002600001D1402020E0514928312068884201D145
:10027000001519E04D493C312068884202D14FF405
:10028000804011E0494950312068884202D14FF442
:10029000802009E0454964312068884202D14FF44A
:1002A000800001E04FF08060404908394860E06A12
:1002B00000287AD02046E16A884776E094F840101A
:1002C000022088402840A0B306F0020088B32068CE
:1002D000006800F0200040B92068006820F00A00A3
:1002E00021680860012084F8210030492068884294
:1002F00001D1022028E02D4914312068884201D123
:10030000202021E0294928312068884201D1401568
:100310001AE026493C312068884202D14FF400504F
:1003200012E0224950312068884203D14FF4003056
:100330000AE017E01D4964312068884202D14FF479
:10034000001001E04FF0007018490839486000BF04
:10035000002084F8200000BFA06A30B32046A16AC4
:10036000884722E094F84010082088402840E0B1F7
:1003700006F00800C8B12068006820F00E0021686F
:10038000086094F8401001208840E16B486001202B
:10039000A06384F8210000BF002084F8200000BF83
:1003A000206B10B12046216B884770BD08000240C9
:1003B0000146002209B901207047164B0868C01A8F
:1003C0001423B0FBF3F08000086412480838C863B7
:1003D000022081F821000868026843F6F070824329
:1003E000D1E901031843CB6818430B6918434B69E3
:1003F00018438B691843CB691843024308680260AD
:1004000000208863012081F82100002081F820006D
:1004100000BFD1E7080002402DE9F847034600225B
:1004200094466EE14FF0010808FA02F4D1F800801A
:1004300008EA0400A0427DD1DFF8DCA2D1F80480F4
:10044000A8EB0A09D0453AD014DCB8F1030F50D01C
:1004500009DCB8F1000F31D0B8F1010F1CD0B8F1B0
:10046000020F49D120E0B8F1110F18D0B8F1120FE6
:1004700042D11EE0B9F5881F25D006DCB9F5803FD2
:1004800020D0B9F5801F37D11AE0B9F5001F18D078
:10049000B9F5041F30D117E0D1F80CC02DE0D1F828
:1004A0000C8008F1040C28E0D1F80C8008F1080C4D
:1004B00023E0D1F80C8008F10C0C1EE000BF00BF57
:1004C00000BF00BF00BF00BFD1F80880B8F1000F27
:1004D00002D14FF0040C0BE0D1F80880B8F1010F05
:1004E00003D14FF0080C1C6102E04FF0080C5C6176
:1004F00003E04FF0000C00E000BF00BFFF2801D870
:10050000984601E003F104084646FF2802D84FEA66
:10051000820803E0A2F108084FEA88084746D6F8A7
:1005200000804FF00F0909FA07F928EA09080CFAC8
:1005300007F900E088E048EA0908C6F80080D1F829
:10054000048008F08058B8F1805F7DD100BFDFF8EB
:10055000CC81D8F8188048F00108DFF8C091C9F8BC
:100560001880C846D8F8188008F00108CDF8008037
:1005700000BF00BF4FEAB9384FEA920958F8295036
:100580004FEA82784FEA18794FF00F0808FA09F815
:1005900025EA0805DFF88881434502D14FF00008BD
:1005A00016E0DFF88081434502D14FF001080FE0EB
:1005B000DFF87481434502D14FF0020808E0DFF80C
:1005C0006C81434502D14FF0030801E04FF004086D
:1005D0004FEA82794FEA197908FA09F848EA0505DD
:1005E000DFF84C814FEA920948F82950D1F804808D
:1005F00008F48018B8F5801F0AD1DFF83881D8F8E0
:10060000008048EA0008DFF82C91C9F8008009E072
:10061000DFF82081D8F8008028EA0008DFF814917C
:10062000C9F80080D1F8048008F40018B8F5001F5C
:1006300010D1DFF8008108F10408D8F8008048EAFA
:100640000008DFF8F09000E05AE009F10409C9F869
:1006500000800DE0DFF8DC8008F10408D8F80080A5
:1006600028EA0008DFF8CC9009F10409C9F80080F5
:10067000D1F8048008F40038B8F5003F0ED1DFF857
:10068000B480A8F10408D8F8008048EA0008DFF830
:10069000A490A9F10409C9F800800DE0DFF8948066
:1006A000A8F10408D8F8008028EA0008DFF8849050
:1006B000A9F10409C9F80080D1F8048008F4803851
:1006C000B8F5803F0ED1DFF86C80A8F10808D8F8A3
:1006D000008048EA0008DFF85C90A9F10809C9F831
:1006E00000800DE0DFF84C80A8F10808D8F8008001
:1006F00028EA0008DFF83C90A9F10809C9F8008051
:10070000521CD1F8008028FA02F8B8F1000F7FF4EB
:1007100089AEBDE8F887000000001110001002400B
:1007200000080140000C014000100140001401408D
:100730000800014008040140024693680B400BB1D9
:10074000012000E0002070470AB1016101E00B04C4
:10075000036170470148006870470000A001002055
:100760000348006803490978084401490860704754
:10077000A0010020A801002010B50848006840F042
:10078000100006490860032000F0A8F80F2000F0D0
:1007900007F800F02BF8002010BD000000200240F8
:1007A00070B504460E4800784FF47A71B1FBF0F052
:1007B0000C490968B1FBF0F5284600F0F9FB08B1D7
:1007C000012070BD102C07D200222146501E00F0DF
:1007D00047F80548046001E00120F2E70020F0E757
:1007E000A8010020AC010020A401002008B500BF32
:1007F0001148806940F001000F498861084680690E
:1008000000F00100009000BF00BF00BF0846C069B3
:1008100040F08050C8610846C06900F080500090E8
:1008200000BF00BF00BF0549486820F0E06040F00D
:100830000070486000BF08BD001002400000014089
:1008400001460846002809DB00F01F0301229A40F8
:1008500043099B0003F1E023C3F8002100BF704768
:100860002DE9F05F80460D461646002701F090F90D
:10087000074639462A46334601F00700C0F1070A09
:10088000BAF1040F02D94FF0040A01E0C0F1070ADF
:10089000D14600F1040ABAF1070F02D24FF0000A64
:1008A00001E0A0F1030AD4464FF0010A0AFA09FA5E
:1008B000AAF1010A0AEA020A0AFA0CFA4FF0010B3D
:1008C0000BFA0CFBABF1010B0BEA030B4AEA0B042E
:1008D0002146404601F064F9BDE8F09F00BF00F0FA
:1008E0000702064B19684FF6FF031940044B0B43F0
:1008F00043EA0221014B196000BF70470CED00E094
:100900000000FA0570B504460D460CB9012070BD13
:100910005A48006800F00700A8420ED25748006805
:1009200020F007002843554908600846006800F099
:100930000700A84201D00120E9E7207800F002007A
:1009400002281DD1207800F00400042805D14C486D
:10095000406840F4E0604A494860207800F00800B0
:10096000082805D14648406840F460504449486032
:100970004348406820F0F000A168084340494860BF
:10098000207800F0010078B36068012806D13C4867
:10099000006800F4003090B90120B8E760680228D0
:1009A00006D13748006800F0007040B90120AEE77A
:1009B0003348006800F0020008B90120A7E730487A
:1009C000406820F00300616808432D494860FFF744
:1009D000C1FE064609E0FFF7BDFE801B41F28831EB
:1009E000884202D9032092E707E02548406800F0DA
:1009F0000C006168B0EB810FEDD12048006800F079
:100A00000700A8420ED91D48006820F007002843BF
:100A10001A4908600846006800F00700A84201D0A3
:100A2000012074E7207800F00400042807D114485E
:100A3000406820F4E060E16808431149486020788C
:100A400000F00800082808D10D48406820F46050E4
:100A5000216940EAC1000A49486000F03FF80849AE
:100A60004968C1F30311074A515CC8400649086050
:100A700006480068FFF794FE002048E70020024087
:100A8000001002404A250008AC010020A40100200B
:100A90000148006870470000AC01002000B5FFF776
:100AA000F7FF04494968C1F30221034A515CC84079
:100AB00000BD0000001002405A25000800B5FFF7F5
:100AC000E7FF04494968C1F3C221034A515CC840A9
:100AD00000BD0000001002405A25000870B500213A
:100AE0000022002400230020134D696801F00C054A
:100AF000F5B1042D02D0082D19D101E00F4819E0FD
:100B00000F4DC1F38346AB5D01F4803555B10A4DFD
:100B10006D68C5F340450B4E725D084D5D43B5FBF6
:100B2000F2F402E0084D03FB05F4204602E000BFAA
:100B3000024800BF00BF70BD0010024000127A00E2
:100B4000382500084825000800093D00F8B504468E
:100B50000CB90120F8BD207800F00100002878D001
:100B6000F848406800F00C0004280CD0F5484068B4
:100B700000F00C00082811D1F248406800F48030E1
:100B8000B0F5803F0AD1EF48006800F4003000283B
:100B90005FD0606800285CD10120DBE700BF60689F
:100BA000B0F5803F06D1E748006840F48030E54961
:100BB000086028E0606858B9E248006820F4803096
:100BC000E04908600846006820F4802008601AE0C8
:100BD0006068B0F5A02F0BD1DA48006840F480209F
:100BE000D84908600846006840F4803008600AE090
:100BF000D448006820F48030D24908600846006874
:100C000020F48020086000BF606888B1FFF7A2FD73
:100C1000054606E0FFF79EFD401B642801D903202E
:100C200098E7C848006800F400300028F2D010E0CF
:100C3000FFF790FD054606E0FFF78CFD401B64289A
:100C400001D9032086E7BF48006800F4003000287F
:100C5000F2D1207800F00200022857D1B94840684C
:100C600000F00C0050B1B748406800F00C000828B4
:100C700018D1B448406800F4803098B9B148006891
:100C800000F0020020B12069012801D0012061E7B5
:100C9000AC48006820F0F800616940EAC100A94949
:100CA000086033E02069E8B10120A7490860FFF738
:100CB00051FD054606E0FFF74DFD401B022801D916
:100CC000032047E79F48006800F002000028F2D0A8
:100CD0009C48006820F0F800616940EAC100994929
:100CE000086013E0002098490860FFF733FD0546CF
:100CF00006E0FFF72FFD401B022801D9032029E75A
:100D00009048006800F002000028F2D1207800F03E
:100D1000080008282DD1A069B8B101208B490860CE
:100D2000FFF718FD054606E0FFF714FD401B0228FB
:100D300001D903200EE78348406A00F00200002832
:100D4000F2D0012000F080FD13E000207F49086010
:100D5000FFF700FD054606E0FFF7FCFC401B0228FC
:100D600001D90320F6E67748406A00F00200002827
:100D7000F2D1207800F00400042873D100277148D4
:100D8000C06900F0805070B900BF6E48C06940F083
:100D900080506C49C8610846C06900F080500090DE
:100DA00000BF00BF01276A48006800F48070B0B936
:100DB0006748006840F4807065490860FFF7CAFC26
:100DC000054606E0FFF7C6FC401B642801D9032056
:100DD000C0E65F48006800F480700028F2D000BFD1
:100DE000E068012806D15748006A40F001005549E3
:100DF000086227E0E06858B95248006A20F0010014
:100E0000504908620846006A20F00400086219E0B0
:100E1000E06805280BD14B48006A40F004004949BE
:100E200008620846006A40F0010008620AE045488E
:100E3000006A20F00100434908620846006A20F079
:100E40000400086200BFE068A0B1FFF783FC05461C
:100E500009E0FFF77FFC401B41F28831884202D94C
:100E6000032077E622E03748006A00F002000028FD
:100E7000EFD012E0FFF76EFC054608E0FFF76AFCD2
:100E8000401B41F28831884201D9032062E62D4897
:100E9000006A00F002000028F0D1012F05D1294896
:100EA000C06920F080502749C86100BFE069C8B31D
:100EB0002448406800F00C00082860D0E06902284F
:100EC00048D1002020490866FFF744FC054606E0AB
:100ED000FFF740FC401B022801D903203AE61948DD
:100EE000006800F000700028F2D1206AB0F5803F61
:100EF00007D11448406820F40030A1680843114924
:100F00004860D4E9080108430E49496821F4741186
:100F100008430C49486001200B490866FFF71AFC9A
:100F2000054607E03DE0FFF715FC401B022801D90C
:100F300003200FE60348006800F000700028F2D09C
:100F40002FE00000001002400000424280044242B4
:100F500000700040002014490866FFF7FBFB0546BF
:100F600006E0FFF7F7FB401B022801D90320F1E55B
:100F70000E48006800F000700028F2D111E0E0692E
:100F8000012800D1E6E50948466806F48031206A68
:100F9000814204D106F47011606A814201D00120BF
:100FA000D8E50020D6E500000000424200100240D3
:100FB00070B504462546681EB0F1807F01D301203C
:100FC0000FE0681E4FF0E02148610F214FF0FF3025
:100FD00000F0E6FD00204FF0E02188610720086165
:100FE000002070BD7047704730B502460B4600BF09
:100FF00092F83C00012801D1022030BD012082F886
:101000003C0000BF022082F83D0010684468106870
:10101000816824F070041868044310684460104D1F
:101020001068A8420BD01068B0F1804F07D00D4D6A
:101030001068A84203D00C4D1068A84205D121F0D9
:1010400080015868014310688160012082F83D00EA
:1010500000BF002082F83C0000BF00BFCDE70000C9
:10106000002C0140000400400008004010B5044678
:101070000CB9012010BD94F83D0028B9002084F877
:101080003C00204600F026F8022084F83D00211D97
:10109000206800F02DFC012084F8460000BF84F891
:1010A0003E0001213F2001554020015541200155BE
:1010B00000BF00BF012084F84200432001554420B6
:1010C00001554520015500BF012084F83D00002056
:1010D000D0E7000038B504461649206888420DD193
:1010E00000BF1548806940F40060134988610846D4
:1010F000806900F40060009000BF19E02068B0F142
:10110000804F15D100BF0C48C06940F001000A496A
:10111000C8610846C06900F00100009000BF00BF30
:10112000002211461C20FFF79BFB1C20FFF788FBC9
:1011300038BD0000002C014000100240014691F82B
:101140003D00012801D001207047022081F83D00B8
:10115000124B086898420BD00868B0F1804F07D056
:101160000F4B0868984203D00E4B086898420CD188
:101170000868806800F00702062A0CD0086800683A
:1011800040F001000B68186005E00868006840F056
:1011900001000B6818600020D6E70000002C014019
:1011A00000040040000800402DE9F04104460D46CF
:1011B000002700BF94F83C00012802D10220BDE8BE
:1011C000F081012084F83C0000BF022084F83D003B
:1011D0002068866826F0770626F47F4620688660B9
:1011E0002868502833D00CDC202850D004DC00289C
:1011F0004BD0102851D149E0302849D040284CD15B
:1012000039E060282DD0702807D0B0F5805F03D07A
:10121000B0F5005F41D10DE041E0D5E902136A6805
:10122000206800F09FFB2068866846F077062068FB
:10123000866034E0D5E902136A68206800F092FB0A
:101240002068806840F480402168886027E0EA6870
:101250006968206800F09AFB5021206800F08DFB3F
:101260001DE0EA686968206800F0A3FB602120683F
:1012700000F083FB13E0EA686968206800F086FBF1
:101280004021206800F079FB09E000BF00BF00BFEB
:101290002968206800F071FB01E0012700BF00BF52
:1012A000012084F83D0000BF002084F83C0000BF0E
:1012B000384684E7704710B5044620680069C0F3DB
:1012C0004000D8B12068C068C0F34000B0B16FF0F2
:1012D000020021680861012020772068806900F001
:1012E000030018B12046FFF7E5FF05E0204600F0B7
:1012F000ADF8204600F0ABF80020207720680069A8
:10130000C0F38000D8B12068C068C0F38000B0B1DD
:101310006FF004002168086102202077206880694E
:1013200000F4407018B12046FFF7C4FF05E02046E6
:1013300000F08CF8204600F08AF800202077206822
:101340000069C0F3C000D8B12068C068C0F3C00015
:10135000B0B16FF008002168086104202077206890
:10136000C06900F0030018B12046FFF7A3FF05E0B5
:10137000204600F06BF8204600F069F80020207746
:1013800020680069C0F30010D8B12068C068C0F3BD
:101390000010B0B16FF010002168086108202077BC
:1013A0002068C06900F4407018B12046FFF782FF42
:1013B00005E0204600F04AF8204600F048F80020FA
:1013C00020772068006900F0010058B12068C068EB
:1013D00000F0010030B16FF0010021680861204683
:1013E00000F036F820680069C0F3C01058B12068DA
:1013F000C068C0F3C01030B16FF080002168086190
:101400002046FFF7EFFD20680069C0F3801058B157
:101410002068C068C0F3801030B16FF040002168D0
:101420000861204600F015F820680069C0F34010FC
:1014300058B12068C068C0F3401030B16FF0200090
:10144000216808612046FFF7CEFD10BD7047704748
:101450007047704710B504460CB9012010BDA06953
:1014600000B100E000BF94F8410028B9002084F8E2
:101470004000204600F02AF8242084F8410020682B
:10148000C06820F400502168C860204600F0A6FA29
:101490002068006920F49040216808612068406954
:1014A00020F02A00216848612068C06840F400509C
:1014B0002168C86000206064202084F8410084F81E
:1014C00042000020606300BFC8E7000010B586B08E
:1014D000044600200290039004900590274920685C
:1014E000884248D100BF2648806940F480402449A2
:1014F00088610846806900F48040019000BF00BF09
:1015000000BF0846806940F0040088610846806991
:1015100000F00400019000BF00BF481502900220B7
:1015200003900320059002A91648FEF775FF4FF4BB
:1015300080600290002003900120049002A91148CD
:10154000FEF76AFF1048114908600020486000213A
:101550000E4881608021C16000210161416181618B
:10156000C161FEF725FF08B1FEF751FE00BF074835
:10157000E063446200BF06B010BD000000380140C7
:10158000001002400008014058000240BC13002037
:101590002DE9F84F04460E46174699464FF0000ACB
:1015A00094F8410020284AD106B117B90120BDE8BE
:1015B000F88F00206064212084F84100FFF7CAF80A
:1015C0008246A784E784A068B0F5805F04D12069D3
:1015D00010B90025B04602E035464FF000081BE088
:1015E0005346002280212046CDF8009000F074FA86
:1015F00008B10320DBE745B9B8F80000C0F30800E4
:101600002168486008F1020803E0287821684860F2
:101610006D1CE08C401EE084E08C0028E0D1534635
:10162000002240212046CDF8009000F055FA08B184
:101630000320BCE7202084F841000020B7E7022007
:10164000B5E700BFFEE7000008B500BF0A484069E3
:1016500040F00100084948610846406900F0010077
:10166000009000BF00BF002211460F20FFF7F8F8DE
:101670000F20FFF7E5F808BD0010024000B585B067
:101680000020019002900390049000BF23488069DD
:1016900040F00400214988610846806900F0040098
:1016A000009000BF00BF00BF0846806940F00800FE
:1016B00088610846806900F00800009000BF00BF04
:1016C0000122DF211648FFF73FF8012207211548C4
:1016D000FFF73AF8DF2001901120029000200390DC
:1016E0000220049001A90E48FEF796FE0720019003
:1016F00011200290002003900220049001A90948C3
:10170000FEF78AFEC0200190002002900120039085
:1017100001A90448FEF780FE05B000BD001002409C
:1017200000080140000C014000B587B00020039084
:1017300004900590069001900290154815490860A4
:101740003F2048600021134881604FF6FF71C1605F
:101750000021016141618161FFF788FC08B1FEF75A
:1017600056FD4FF48050039003A90A48FFF71CFD73
:1017700008B1FEF74CFD00200190029001A9054838
:10178000FFF732FC08B1FEF742FD07B000BD0000D4
:10179000002C0140E412002000B587B00020039027
:1017A000049005900690019002904FF080401449FB
:1017B000086041F6FF0048600021114881604FF643
:1017C000FF71C160002101618161FFF74FFC08B129
:1017D000FEF71DFD4FF48050039003A90848FFF762
:1017E000E3FC08B1FEF713FD00200190029001A96F
:1017F0000348FFF7F9FB08B1FEF709FD07B000BD8C
:101800002C13002010B50B480B4908604FF4E13051
:101810004860002108488160C16001610C2141617C
:1018200000218161C161FFF715FE08B1FEF7EFFCF1
:1018300010BD0000003801407413002000BFFEE717
:1018400000BFFEE77047000008B508490968C908ED
:101850004FF47A72B1FBF2F14143009100BF00BF37
:1018600000994A1E00920029F9D108BDAC01002060
:10187000704710B5FEF774FF10BD00B58FB028217A
:1018800005A8FEF756FC14216846FEF752FC02201C
:1018900005900120099010200A9002200C90002150
:1018A0000D914FF460110E9105A8FFF74FF908B1A3
:1018B000FEF7ADFC0F200090022001900020029066
:1018C0004FF4806003900020049002216846FFF7E7
:1018D00019F808B1FEF79BFC0FB000BD704700007F
:1018E00010B50248FFF7E7FC10BD00002C130020E4
:1018F00010B50268184B984208D0B0F1804F05D05F
:10190000164B984202D0164B984203D122F0700237
:101910004B681A43104B984208D0B0F1804F05D065
:101920000E4B984202D00E4B984203D122F44072E3
:10193000CB681A4322F080034C6943EA0402026038
:101940008B68C3620B688362034B984201D10B69B9
:1019500003630123436110BD002C014000040040DB
:101960000008004030B50C46816821F47F4142EA0E
:10197000032525432943816030BD0A46816821F053
:10198000700142F0070319438160704730B50B4680
:101990001446026A056A25F001050562816921F095
:1019A000F00141EA041122F00A021A438161026245
:1019B00030BD30B50B461446026A056A25F01005A5
:1019C0000562816921F4704141EA043122F0A002EC
:1019D00042EA03128161026230BD000070B5044624
:1019E0002168096921F44051E268114322681161BC
:1019F0002269A1681143626941EA02052168C96848
:101A000041F20C62914329432268D16021684969FF
:101A100021F44071A2691143226851612D4A216865
:101A2000914202D1FFF74AF801E0FFF737F800EBE7
:101A3000C00101EB001162689200B1FBF2F100EB12
:101A4000C00202EB001263689B00B2FBF3F2642356
:101A5000B2FBF3F202EBC20303EB0212A1EB820131
:101A6000322202EB01116422B1FBF2F101F0F0012C
:101A700000EBC00202EB001263689B00B2FBF3F2C2
:101A80006423B2FBF3F201EB021200EBC00101EBA5
:101A9000001163689B00B1FBF3F100EBC00303EBA3
:101AA00000136668B600B3FBF6F36426B3FBF6F3E7
:101AB00003EBC30606EB0313A1EB8301322303EB15
:101AC00001116423B1FBF3F101F00F01114422680D
:101AD000916070BD003801402DE9F04104460D468B
:101AE00017469846069E34E0701C88B32EB1FEF768
:101AF00031FEA0EB0800B0422BD900BF00BF216827
:101B00000C3151E8001F21F4D07021680C3141E8FC
:101B10000002002AF3D100BF00BF00BF21681431CA
:101B200051E8001F21F001002168143141E8000252
:101B3000002AF3D100BF202084F8410084F842003D
:101B400000BF002084F8400000BF0320BDE8F08102
:101B5000FFE7206800682840A84201D1012000E08A
:101B60000020B842C0D00020F0E700BFFEE7000030
:101B70000FB4054B10B503A9044A029800F034F8DD
:101B800010BC5DF814FB0000611D0008B0010020CE
:101B900002480068C0F30220704700000CED00E02E
:101BA00010B5002804DB0A07130E054A135406E09B
:101BB0000A07140E034A00F00F031B1FD45410BD74
:101BC00000E400E018ED00E002E008C8121F08C1C0
:101BD000002AFAD170477047002001E001C1121FAE
:101BE000002AFBD1704700002DE9FF4F89B09B46CA
:101BF0000446002506E025280BD05A460B9990474D
:101C0000641C6D1C20780028F5D10DB02846BDE875
:101C1000F08F0027B8460122474900E0074314F837
:101C2000013F203B02FA03F00842F7D120782E282A
:101C300019D114F8010F47F004072A280ED06FF0CD
:101C40002F022078A0F1300109290CD808EB880177
:101C500002EB410100EB0108641CF2E70A98641CE6
:101C600050F8048B0A9020780028CED0642808D041
:101C7000692806D075281ED05A460B9990476D1CCE
:101C800058E00A994FF00A0901C90A91002802DABE
:101C900040422D2102E0390504D52B218DF820107A
:101CA000012103E0F90704D02021F7E78A4608AEB6
:101CB0000DE00021FAE70A994FF00A0901C90A91DB
:101CC000F7E74946FEF740FA303106F8011D0028D3
:101CD000F7D1ADEB060000F12009780701D44FF0F1
:101CE0000108C84502DDA8EB090000E0002080469D
:101CF000002706E008A85A46C05D0B9990476D1C66
:101D00007F1C5745F6DB04E030205A460B9990477C
:101D10006D1CB8F10001A8F10108F5DC05E016F82A
:101D2000010B5A460B9990476D1CB9F10001A9F1BE
:101D30000109F4DC641C65E7092801000021044A5C
:101D4000116000BF4FF08041496A8142FAD3704769
:101D5000242C01400146012040EAE17048437047CD
:101D600013B50C464FF6FF73012269460248FFF790
:101D70000FFC00981CBD0000741300202DE9FF41EA
:101D800082B0DDE90D860F9F0C9D02A80FC800F000
:101D90006BF9009502A80FC800F036F902A80FC829
:101DA00000F09FF910B124A0FFF7E2FECDF800800B
:101DB00002A80FC800F028F902A80FC800F091F996
:101DC00010B121A0FFF7D4FE3220FFF7B7FF02A821
:101DD0000FC800F049F945F00100009002A80FC8B3
:101DE00000F012F902A80FC800F07BF910B116A09C
:101DF000FFF7BEFE00240AE002A80FC800F0C8F8F2
:101E0000385502A80FC800F083F8601CC4B2701ED9
:101E1000A042F1DC02A80FC800F0BAF8711E785495
:101E200002A80FC800F097F802A80FC800F03CF90C
:101E300006B0BDE8F0810000446576696365204E18
:101E40006F2041434B0A00004E6F2041434B0A0074
:101E50002DE9FF4182B0DDE90C78DDE90E5602A8DC
:101E60000FC800F001F9009702A80FC800F0CCF8E5
:101E700002A80FC800F035F910B11FA0FFF778FED7
:101E8000CDF8008002A80FC800F0BEF802A80FC865
:101E900000F027F910B11CA0FFF76AFE00240FE044
:101EA000305D009002A80FC800F0AEF802A80FC87D
:101EB00000F017F910B114A0FFF75AFE601CC4B26D
:101EC000681EA042ECDC305C009002A80FC800F055
:101ED0009BF802A80FC800F004F910B10AA0FFF7A0
:101EE00047FE02A80FC800F036F802A80FC800F09D
:101EF000DBF806B0BDE8F081446576696365204E85
:101F00006F2041434B0A00004E6F2041434B0A00B3
:101F10001FB5BDF80C1000220298FEF715FC322008
:101F2000FFF70CFFBDF8041001220098FEF70CFC2F
:101F30003220FFF703FFBDF8041000220098FEF7DF
:101F400003FC3220FFF7FAFEBDF80C1001220298C4
:101F5000FEF7FAFB1FBD1FB5BDF80C100122029859
:101F6000FEF7F2FB3220FFF7E9FEBDF80410012274
:101F70000098FEF7E9FB3220FFF7E0FEBDF8041001
:101F800000220098FEF7E0FB3220FFF7D7FE1FBDCE
:101F90001FB5BDF80C1001220298FEF7D5FB802476
:101FA0002AE03220FFF7CAFEBDF804100122009893
:101FB000FEF7CAFB3220FFF7C1FEBDF80C1001226C
:101FC0000298FEF7C1FBBDF80C100298FEF7B4FBB7
:101FD000012805D10B48007820430A49087004E025
:101FE00008480078A04307490870BDF80410002293
:101FF0000098FEF7A9FB6410002CD2D101480078AC
:1020000004B010BD000000207FB5089D802422E0B0
:1020100004EA050030B9BDF80C1000220298FEF762
:1020200093FB05E0BDF80C1001220298FEF78CFB33
:102030003220FFF783FEBDF8041001220098FEF75E
:1020400083FB3220FFF77AFEBDF8041000220098CF
:10205000FEF77AFB6410002CDAD1BDF80C100122D7
:102060000298FEF771FB7FBD1FB5BDF80C10012271
:102070000298FEF769FBBDF8041001220098FEF7F4
:1020800063FB3220FFF75AFEBDF80C1000220298C5
:10209000FEF75AFB3220FFF751FEBDF80410002274
:1020A0000098FEF751FB1FBD1FB5BDF80C100022B4
:1020B0000298FEF749FB3220FFF740FEBDF80410FE
:1020C00001220098FEF740FB3220FFF737FEBDF8F3
:1020D0000C1001220298FEF737FB3220FFF72EFE8C
:1020E0001FBD1FB50024BDF80C1001220298FEF799
:1020F0002BFB3220FFF722FEBDF8041001220098CE
:10210000FEF722FB3220FFF719FE0AE0601CC4B282
:10211000FF2C06D19DE80F00FFF7C6FF012004B099
:1021200010BDBDF80C100298FEF706FB0028EDD19B
:10213000BDF8041000220098FEF706FB3220FFF7DE
:10214000FDFD0020EBE700001FB5FEF715FBFFF7D4
:1021500094FBFFF793FAFFF777FAFFF753FBFFF7CC
:102160001BFBFFF7E1FA8348FEF7E8FF8248FEF722
:10217000E5FF00240BE0814800EB041595E80F0013
:1021800000F08AF910B900207D490870641C192CF0
:10219000F1DB7B48007810B17AA0FFF7E9FC00245E
:1021A00007E0764800EB041595E80F0000F045F9CC
:1021B000641C192CF5DB0020019002900390D8E0FC
:1021C000002417E0052094FBF0F000EB800072493A
:1021D00001EB0010052194FBF1F201FB124100EB31
:1021E0000115664800EB041C00959CE80F0000F008
:1021F000E3F8641C192CE5DB00204FF080414862B5
:10220000002248E0002343E000243EE00021642057
:10221000504303EB830500EB450020445F4D45F838
:10222000201000252EE000BF0026052095FBF0F0D1
:1022300000EB8000584901EB0010052195FBF1FCF3
:1022400001FB1C5100EB01108068A6EB0008404622
:10225000FFF780FD6421514303EB830C01EB4C013C
:102260002144DFF838C15CF8211001446420504358
:1022700003EB830C00EB4C002044DFF820C14CF84A
:1022800020106D1C192DCEDB641C0A2CBEDB5B1CE0
:102290000A2BB9DB521C0A2AB4DB4FF6FF77002069
:1022A0000AE03E4951F82010B94204D23C49086086
:1022B0003A4951F82070401CB0F57A7FF1DB4FF0BD
:1022C0008040406A37A0FFF753FC002414E005204B
:1022D00094FBF0F000EB80002F4901EB001005218A
:1022E00094FBF1F201FB124100EB01100568294655
:1022F0002DA0FFF73DFC641C192CE8DB2BA0FFF799
:1023000037FC002414E0052094FBF0F000EB800083
:10231000214901EB0010052194FBF1F201FB124170
:1023200000EB0110456829461FA0FFF721FC641C43
:10233000192CE8DB1FA0FFF71BFC002414E005208C
:1023400094FBF0F000EB8000134901EB0010052135
:1023500094FBF1F201FB124100EB01108568294664
:1023600011A0FFF705FC641C192CE8DB09A0FFF79E
:10237000FFFB25E7E41200202C13002010000020B2
:102380000C0000203235205465737420537563634C
:10239000636573730A000000B40100204403002049
:1023A0000800002055200000256420000A56202047
:1023B000000000000A5720001FB58CB0129C04A832
:1023C000082100226023CDE90032CDE902100CA8DB
:1023D0000FC8FFF7D3FC9DF8100000039DF8111003
:1023E00040EA01109DF8161040EA111020609DF897
:1023F000120000039DF8131040EA01109DF8171019
:1024000040EA111060609DF8140000039DF815105B
:1024100040EA01109DF8181040EA1110A0602068F1
:10242000A0F5002020606068A0F500206060A06832
:10243000A0F50020A06010B010BD0FB585B0FF2042
:10244000049004A801211A226023CDE90032CDE9CD
:10245000021005A80FC8FFF7FBFCA020049004A8F9
:1024600001211B226023CDE90032CDE9021005A82D
:102470000FC8FFF7EDFC1020049004A801211D22D5
:102480006023CDE90032CDE9021005A80FC8FFF79F
:10249000DFFC09B000BD00001FB582B002A80FC864
:1024A000FFF7E2FD6020009002A80FC8FFF7ACFD27
:1024B00002A80FC8FFF715FE10B11DA0FFF758FBCB
:1024C0003920009002A80FC8FFF79EFD02A80FC890
:1024D000FFF707FE10B116A0FFF74AFB3220FFF707
:1024E0002DFC02A80FC8FFF7BFFD6120009002A8D5
:1024F0000FC8FFF789FD02A80FC8FFF7F2FD10B162
:102500000BA0FFF735FB02A80FC8FFF741FD0446FB
:1025100002A80FC8FFF71FFD02A80FC8FFF7C4FDF0
:10252000102C02D1012006B010BD0020FBE70000F6
:102530004E6F2041434B0A000203040506070809B9
:102540000A0B0C0D0E0F101001020000000000001D
:102550000000010203040607080900000000010250
:10256000030400008425000800000020B4010000DE
:1025700098010008E8250008B40100204C1600006E
:10258000D81B0008920001220105500508014040B7
:1025900008E110D20210D20410D20810521010D24A
:1025A0008050D28050D28050D28050A28050820C75
:1025B00098D20110D20210D20410D208106150D269
:1025C0000250D20250D20250D20250D20250D20453
:1025D00050D20450D20450D20450A60440111366C5
:0825E000109C3724F4AF000049
:04000005080000ED02
:00000001FF
