:020000040800F2
:10000000880C002001010008FB170008F11500080A
:10001000F917000807020008F11B000800000000A3
:10002000000000000000000000000000FF170008B2
:100030004702000800000000FD1700080118000832
:100040001B0100081B0100081B0100081B01000820
:100050001B0100081B0100081B0100081B01000810
:100060001B0100081B0100081B0100081B01000800
:100070001B0100081B010008090200081502000806
:100080001B0100081B0100081B0100081B010008E0
:100090001B0100081B0100081B0100081B010008D0
:1000A0001B0100081B0100081B0100081B010008C0
:1000B0006D1800081B0100081B0100081B01000847
:1000C0001B0100081B0100081B0100081B010008A0
:1000D0001B010008E91B00081B0100081B010008A8
:1000E0001B0100081B0100081B010008DFF80CD0F1
:1000F00000F048F80048004761200008880C002004
:100100000648804706480047FEE7FEE7FEE7FEE7B1
:10011000FEE7FEE7FEE7FEE7FEE7FEE76B180008F6
:10012000ED000008D2B201E000F8012B491EFBD21D
:1001300070470022F6E710B513460A4604461946F2
:10014000FFF7F0FF204610BD421C10F8011B0029EC
:10015000FBD1801A704730B50B46014600202022A3
:10016000012409E021FA02F59D4205D303FA02F5C4
:10017000491B04FA02F52844151EA2F10102F1DC24
:1001800030BD0000064C074D06E0E06840F001037A
:1001900094E8070098471034AC42F6D3FFF7AAFF63
:1001A0007C2800089C28000870B58D1810F8014BB9
:1001B00014F0030201D110F8012B231106D110F81D
:1001C000013B03E010F8016B01F8016B521EF9D1FD
:1001D000ABB110F8012B04F00C048A1A0C2C03D0DC
:1001E000A2EB84129B1C08E010F8014BA2EB042246
:1001F000F8E712F8014B01F8014B5B1EF9D5A94253
:10020000D4D3002070BDFEE7014800F085B800BFE0
:10021000EC010020014800F07FB800BFA8010020D9
:10022000F0B5D0E90045D0E90F60012707FA00F0EA
:10023000102D70600846636008BF1046A06008BFBC
:100240000A46E260F0BD7047EFF3108072B6FEE739
:1002500010B590F82110022912D10168D0E90F23BE
:100260000C6824F00E040C600C6824F001040C608F
:10027000012101FA03F3536080F82110002102E00C
:10028000042181630121002280F82020084610BD4E
:10029000B0B590F8211002291CD10368674C0122E7
:1002A0001968A34221F00E011960196821F00101BB
:1002B0001960614912D0624CA34211D0614CA34233
:1002C00010D0614CA34210D0604CA34210D14FF427
:1002D000803415E00421816301211BE001240FE03B
:1002E00010240DE04FF480740AE04FF4805407E0CE
:1002F00001F168054FF08074AB4208BF4FF48014E1
:100300000C60002180F8201080F82120426B0AB197
:10031000904700210846B0BD70B50168D0E90F23B1
:1003200014680D686E071DD504269E40264019D01E
:100330000A68920603D40A6822F004020A603F4B5E
:100340003D4A994258D03E4B994244D03D4B994248
:1003500043D03D4B994243D03C4B994243D14FF45B
:1003600080234AE0AE0720D502269E4026401CD0BE
:100370000A68920606D40A6822F00A020A6001227C
:1003800080F821202D4B2C4A994239D02C4B994290
:1003900038D02C4B994237D02B4B994237D02B4B2E
:1003A000994237D14FF400333CE02D0743D508255F
:1003B0009D402C403FD00C6824F00E040C600121BD
:1003C00001FA03F353600022816380F8202080F853
:1003D0002110016B2BE040230FE04FF480630CE011
:1003E0004FF4804309E002F168044FF08063A142BA
:1003F00008BF4FF4800300E004231360C16A16E0D5
:1004000002230FE020230DE04FF400730AE04FF4C5
:10041000005307E002F168044FF00073A14208BFE7
:100420004FF40013002180F820101360816A11B18D
:10043000BDE87040084770BD04000240080002405B
:100440001C000240300002404400024058000240BC
:100450000146012061B32DE9F043022201F10C0EA7
:1004600043F6F07481F8212091E804039EE8E050FF
:100470001368A3430F4C43EA080343EA09032B43E1
:1004800033433B4343EA0C0343EA0E031360002368
:100490008B6381F82030084B1A441423B2FBF3F22B
:1004A0009200C1E90F4281F821000020BDE8F0432D
:1004B000704700BF00000240F8FFFDBFB0B5044622
:1004C00090F8200001281DD0012084F8200094F825
:1004D0002100012813D1022084F821000020A0630C
:1004E0002068056825F0010505602046FFF798FEA5
:1004F0002068E26A01683AB141F00E010AE000208A
:1005000084F820000220B0BD21F0040101600168E0
:1005100041F00A010160016841F001010160002021
:10052000B0BD00002DE9FC4F594A04234FF0000BE9
:100530004FF001084FF00F0E4FF0000900259042D8
:1005400008BF032300930B6833FA05F208BFBDE828
:10055000FC8F08FA05F2134200F095804F68032FD4
:1005600016D9112F24D0122F26D04C4B9F4213D0D6
:100570004B4B9F4210D04B4B9F420DD04A4B9F425A
:100580000AD04A4B9F4207D0494B9F4204D020E0FB
:10059000DFE807F00216191D8B6833B1012B14BF79
:1005A000426102614FF0080913E04FF0040910E0C6
:1005B000CB6803F104090CE0CB6803F10C0908E0F7
:1005C000D1F80C9005E0CB6803F1080901E04FF089
:1005D00000095B460646082D28BF203B28BF04368D
:1005E00037680EFA03F409FA03F327EA04042343F5
:1005F0003360CB79DB0646D5664C264E0BF00C0CEF
:100600002368A6F57E7643F001032360236803F098
:10061000010301930EFA0CF3019CAC0856F8247008
:1006200027EA030A234B984208D0234B984207D06D
:10063000224B9842009B08BF022302E0002300E007
:10064000012303FA0CF343EA0A0346F82430114C61
:10065000114E4F68FB02A36854BF93431343A3603A
:10066000BB02336854BF934313433360BB036368D7
:1006700054BF934313436360FB03236854BF23EACF
:1006800002021A4322600BF1040B01355BE700BF45
:1006900000140140000401400C040140000011104E
:1006A0000000121000002110000022100000311084
:1006B0000000321000080140000C01400010014011
:1006C0008068084018BF01207047C26802EA010331
:1006D000914341EA034101617047002A08BF0904C0
:1006E0000161704705480068704700BF1A48034918
:1006F00000780A6810440860704700BF8408002032
:1007000080B58E48016841F010010160032000F0BF
:100710006FF80F2000F004F800F020F8002080BDF2
:1007200070B50D4E04464FF47A713078B1FBF0F09D
:100730008F490968B1FBF0F000F0E2FA01250F2CB7
:1007400008D838B94FF0FF3021460022002500F0CC
:1007500033F87460284670BD0400002082B00D4854
:100760000222016841F001010160016801F001010C
:1007700001910199416841F080514160406800F069
:100780008050009000980448016862F31A6101608B
:1007900002B070471810024004000140002808D43D
:1007A00000F01F010122400902FA01F1014A42F85A
:1007B0002010704700E100E070B5134B4FF0FF359B
:1007C0001B68C3F30223DC1E83F0070338BF002439
:1007D000042B28BF042305FA04F605FA03F3B243F9
:1007E0009943A1401143BDE8704001F003BA00BF36
:1007F00005494FF6FF030A681A4060F30A220348CE
:1008000010430860704700BF0CED00E00000FA05DF
:100810002DE9F84300286AD088464849044608680C
:1008200000F0070040450AD2086820F0070040EABF
:1008300008000860086800F00700404557D12068AC
:100840005A4B8946810711D5410703D5196841F4F0
:10085000E0611960010703D5196841F4605119601E
:10086000A1681A6822F0F00211431960C00737D15D
:10087000D9F8000000F0070040450DD9D9F8000074
:1008800020F0070040EA0800C9F80000D9F800008D
:1008900000F0070040452AD12068410705D5E168EE
:1008A0001A6822F4E06211431960000706D5206936
:1008B000196821F4605141EAC00018601C4600F03C
:1008C0005BF821681E4AC1F30311515CC8402849F6
:1008D00008601C480068FFF723FF0020BDE8F8838C
:1008E0006068012806D153F8041C89030BD4012049
:1008F000BDE8F88353F8041C022802D18901F6D51B
:1009000001E08907F3D519681D4621F0030108436A
:100910001860FFF7E7FE064641F2883760682968ED
:100920002B4601F00C01B1EB800FA1D0FFF7DAFEEE
:10093000801BB842F2D90320BDE8F88300200240B2
:100940006C27000808000020EB481849094A006895
:100950000968C1F30221515CC8407047E648134959
:10096000044A00680968C1F3C221515CC84070475D
:100970000C0000207C27000810B50C490C480A68C0
:1009800002F00C03082B07D1C2F3834309A4D2035E
:10099000E35C02D40C48584310BD096809A25843CF
:1009A000C1F34041515CB0FBF1F010BD04100240B6
:1009B00000127A0002030405060708090A0B0C0D51
:1009C0000E0F10100102000000093D002DE9FC414E
:1009D000002800F0A68004460078C54EC00725D048
:1009E000706800F00C0004281AD0706800F00C0049
:1009F000082802D17068C00312D46068002800F093
:100A00000C81B0F5803F07D03168B0F5A02F40F0E1
:100A1000388141F480203060306840F4803036E125
:100A20003068800302D5606800287AD0207880077B
:100A300018D5706810F00C0F07D0706800F00C002B
:100A4000082824D17068C00321D43068800702D5FB
:100A50002069012865D16069316821F0F80141EA17
:100A6000C00030602078000741D5A06910B3A148CC
:100A70000121C0F88014FFF735FE0546706A800733
:100A800028D4FFF72FFE401B0228F7D90CE121697B
:100A90009848002900F09A8001210160FFF722FEAA
:100AA000054630688007D6D4FFF71CFE401B02289D
:100AB000F7D9F9E08F480021C0F88014FFF712FE43
:100AC0000546706A800712D5FFF70CFE401B02280E
:100AD000F7D9E9E088484FF4FA510068B0FBF1F02B
:100AE000019000BF0198411E00280191F9D12078A2
:100AF000400719D4E7698FB1706800F00C0008282E
:100B000045D1012F0DD0216A706800F480328A42ED
:100B100007D1616A00F47010884202D10020BDE85C
:100B2000FC810120BDE8FC81F069C0000BD4F069B4
:100B30004FF0010840F08050F061F06900F0805003
:100B40000090009801E04FF000086C4F3868C00535
:100B50000FD4386840F480703860FFF7C3FD054655
:100B60003868C00505D4FFF7BDFD401B6428F7D9E0
:100B70009AE0E068D0B3012805D0316A052862D137
:100B800041F004003062306A40F0010061E05949F0
:100B9000002088460866FFF7A5FD0546022F0BD109
:100BA00047463068800140F18280FFF79BFD411B82
:100BB00003200229F5D9B2E730688001AED5FFF7EE
:100BC00091FD411B03200229F6D9A8E7002101600D
:100BD000FFF788FD0546306880077FF543AFFFF7D4
:100BE00081FD411B03200229F5D998E7306A20F0E6
:100BF00001003062306A20F004003062FFF772FDBD
:100C0000054641F28837306A800731D5FFF76AFD23
:100C1000411B0320B942F6D981E7306820F48030C7
:100C20003060306820F480203060FFF75BFD0546BF
:100C3000306880037FF5FAAEFFF754FD411B0320B7
:100C40006429F5D96BE721F001003062306A20F0A9
:100C500004003062FFF746FD054641F28837306AEE
:100C6000800705D4FFF73EFD401BB842F7D91BE0D3
:100C7000B8F1000F3FF43EAFF06920F08050F06112
:100C800038E721F480303060306820F48020306014
:100C9000FFF728FD0546306880033FF5C7AEFFF734
:100CA00021FD401B6428F6D90320BDE8FC81206AA1
:100CB000B0F5803F05D1A168726822F4003211437B
:100CC0007160616A0843716821F4741108437060AF
:100CD00001203866FFF706FD0446306880013FF5C5
:100CE0001DAFFFF7FFFC011B03200229F5D916E712
:100CF00000100240000042420C0000200070004042
:100D0000411E0020B0EB116F1CBF01207047044A48
:100D1000F023516003490B70072190601160704708
:100D200010E000E023ED00E07047704710B590F848
:100D30003C300222012B24D080F83D20012280F893
:100D40003C2002680B685468B2F1804F24F07004B4
:100D500044EA03049368546008D0474CA24205D08B
:100D6000464CA24202D0464CA24204D1496823F02C
:100D70008003194391600022012180F83C2080F813
:100D80003D10104610BD00BF40B310B5044690F8AA
:100D90003D0028B9002084F83C00204600F020F8EF
:100DA0000220211D84F83D00206800F065FD01202F
:100DB00084F8460084F83E0084F83F0084F8400040
:100DC00084F8410084F8420084F8430084F8440029
:100DD00084F8450084F83D00002010BD01207047D4
:100DE000E0B50068B0F1804F0DD02449884209D1A8
:100DF0000F48016841F400610160006800F4006080
:100E0000019001988CBD0A480022416841F001011F
:100E100041600021406800F00100009000981C2013
:100E2000FFF7CAFC1C20BDE88C40FFF7B7BC00BF31
:100E30001810024090F83D1001291CBF0120704796
:100E4000022180F83D100068B0F1804F08D00A49B7
:100E5000884205D00949884202D00949884204D114
:100E6000816801F00701062903D0016841F0010102
:100E700001600020704700BF00040040002C0140CA
:100E80000008004010B590F83C2004460220012ADA
:100E900070D084F83D0001204FF6777384F83C0051
:100EA000206882689A4382600A6812B3102A20D0B0
:100EB000202A1ED0302A1CD0402A21D0502A2BD0E4
:100EC000602A35D0B2F5005F3ED0B2F5805F4AD0DF
:100ED000702A50D1D1E90123C9681A4342EA01219D
:100EE000826822F47F4211438160816841F077017A
:100EF00038E0816821F07001114341F0070131E0D1
:100F00004B68CA68194600F0EFFC2068816841F020
:100F1000470121F0300125E04B68CA68194600F00E
:100F2000E3FC2068816841F0570121F0200119E0BD
:100F30004B68CA68194600F0E8FC2068816841F0F7
:100F4000670121F010010DE0D1E90123C9681A43BE
:100F500042EA0121826822F47F4211438160816864
:100F600041F4804181600020002184F83C1001217F
:100F700084F83D1010BD0120F6E7704710B5044617
:100F800000680169890744BFC1685FEA817139D48B
:100F90000169490744BFC1685FEA41713ED40169F4
:100FA000090744BFC1685FEA017144D40169C906F9
:100FB00044BFC1685FEAC16149D40169C9071CBF68
:100FC000C1685FEAC1714FD10169090644BFC168B8
:100FD0005FEA016150D40169490644BFC1685FEA14
:100FE000416151D40169890644BFC1685FEA8161EA
:100FF00000D410BD6FF0200101612046BDE8104013
:10100000FFF793BE6FF00201016101212177806932
:10101000800741D02046FFF7B0FF43E06FF00401A6
:10102000016102212177806910F4407F3ED0204683
:10103000FFF7A3FF40E06FF0080101610421217771
:10104000C06980073CD02046FFF797FF3EE06FF075
:101050001001016108212177C06910F4407F39D067
:101060002046FFF78AFF3BE06FF001010161204657
:1010700000F03CF82068A7E76FF08001016120468E
:10108000FFF752FE2068A6E76FF04001016120469D
:1010900000F02DF82068A5E7204600F025F820464E
:1010A00000F023F800202077206871E7204600F048
:1010B0001BF8204600F019F80020207720686EE722
:1010C000204600F011F8204600F00FF800202077AD
:1010D00020686BE7204600F007F8204600F005F88E
:1010E00000202077206868E7704770477047704796
:1010F00070477047F8B5044600680168C2684669E1
:1011000001F02F0502F02003202D05D123B1204648
:10111000BDE8F84000F08EBC5FEA017E08D006F022
:10112000010612F4907F86F0010752D1002F50D0B3
:101130001140CA06226B3BD5012A39D1002100910A
:10114000016800914168009100994169490600F1E8
:101150008E80E18DA28DE38D13B1511A0A0401D165
:10116000F8BD206850E8030F226820F4907042E830
:101170000303002BF5D1206850E8050F226820F00A
:10118000010042E80503002BF5D1202084F842003D
:1011900000202063206850E8030F226820F0100030
:1011A00042E80303002BF5D1022089B26063A3E07B
:1011B0000A0600F1A6804906D2D5C16821F0400197
:1011C000C160202084F841002046BDE8F84000F0CE
:1011D0000DBACD0718BF12F4807503D0656C45F0C9
:1011E0000105656401F004054FF0010C8CEA9505DA
:1011F0003D4303D1656C45F00205656401F00205CD
:101200008CEA55053D4303D1656C45F004056564E2
:10121000334318BF0123BEF1000F04D51BB1636C2B
:1012200043F008036364636C002B99D01140890676
:1012300003D5204600F0FEFB20684069616C00F099
:10124000400001F0080140186CD0204600F0BDFBC2
:1012500020684169490679D550E8050F216820F0DA
:10126000400041E80502002A62D02068F4E7E26B02
:1012700011684B689DB2002D3FF472AFA18D8D4275
:10128000BFF46EAFE3859269202A30D050E8030F97
:10129000216820F4807041E803020AB12068F5E774
:1012A000206850E8050F216820F0010041E80502A0
:1012B000002AF5D1206850E8050F216820F0400091
:1012C00041E80502002AF5D1202084F842000020E0
:1012D0002063206850E8030F216820F0100041E8E7
:1012E0000302002AF5D1E06BFEF7B2FFA18D0220C8
:1012F0006063E08D081A81B22046BDE8F840FFF730
:10130000F7BE94F8411021297FF42AAFA168B1F506
:10131000805F01D12169F1B1216A4A1C22620978FA
:1013200041601FE02046FFF7E4FE00206064F8BD46
:10133000E06B58B113494163FEF7AAFF00283FF460
:101340000FAFE06B416BBDE8F84008472046BDE8B1
:10135000F840FFF7CEBE216A31F8022B6FF35F220F
:1013600021624260E18C0139E18409047FF4F8AE26
:10137000C16821F08001C160C16841F04001C160D5
:10138000F8BD00BF2F19000858B310B5044690F8F7
:10139000410028B9002084F84000204600F024F8DD
:1013A000242084F841002068C16821F40051C16004
:1013B000204600F0A1FB2068016921F49041016101
:1013C000416921F02A014161C16841F40051C160C5
:1013D00000202021606484F8411084F8421060638A
:1013E00010BD0120704700002DE9F04186B00027B4
:1013F0000446344DCDE90477CDE90277216805F53F
:10140000405081425BD1B94802AE016841F480414D
:101410000160016801F4804101910199016841F086
:10142000040101603146006800F0040001900320CF
:101430000590022003904FF4007002900198284616
:10144000FFF770F801203146CDE903704FF480605A
:1014500002902846FFF766F81C4E1B4D4FF080089F
:1014600006F11400C5E900072846C5E90278C5E978
:101470000477C5E90677FEF7EBFF08B1FEF7E4FE57
:101480006C62E563124D10224FF440500021C5E913
:101490000062C5E90218C5E90411C5E9061028462D
:1014A000FEF7D6FF08B1FEF7CFFE2520002100226F
:1014B0006C62A563FFF780F92520FFF76FF906B08E
:1014C000BDE8F08100080140A8010020440002406E
:1014D000EC01002070472DE9F843044690F84100E4
:1014E00020281CBF0220BDE8F8838846012000297F
:1014F00042D01746002A3FD04FF0000921201D4658
:10150000C4F8449084F84100FFF7ECF8E7840646FD
:10151000A784A068B0F5805F05D12769002F0CBFB4
:10152000C146474600E04746E08CB8B120468021DE
:1015300032462B4600F020FBB8B927B117F8010B53
:101540002168486006E039F8021B206800276FF325
:101550005F214160E08C0138E084E5E720464021CE
:1015600032462B4600F008FB10B10320BDE8F8839B
:10157000202084F841000020BDE8F883F8B5044637
:1015800090F8410020281CBF0220F8BD012031B393
:10159000134622B30022E384134EDFF844C0114FF8
:1015A0006264A3842162A06B256800F1280E8EE896
:1015B000C0104263212284F841202A1DFEF77EFFDD
:1015C00020686FF04001016050E8050F216840F08D
:1015D000800041E805020AB12068F5E70020F8BD67
:1015E0003B190008C51900088919000870477047A1
:1015F000FEE70000E0B50E480022016841F001015D
:1016000001600021006800F00100019001980E20A7
:10161000FFF7D2F80E20FFF7C1F80F2000210022BB
:10162000FFF7CAF80F20BDE88C40FFF7B7B800BF3E
:10163000141002402DE9F04F85B02C482C4C2D4E53
:1016400001224FF0DF080168A4F5806541F0200118
:101650000160016801F0200101910199016841F0E8
:1016600004010160016801F0040101910199016820
:1016700041F008010160DF21006800F008000190DE
:1016800001982846B047204607210122B04720464E
:10169000802100224FF00009B04701AE164F4FF0F5
:1016A000030A4FF0110B28463146CDE9039ACDE9E4
:1016B000018BB8470720CDF810A0CDE902B931461B
:1016C00001902046B847012540203146CDE90295DA
:1016D00001902046B84702A8314680E820068020C5
:1016E00001902046B84705B0BDE8F08F18100240C1
:1016F000000C0140DB0600082505000810B586B087
:101700001648764C002147234FF6FF72CDE90411AD
:10171000CDE90211CDE90011C0E90043C0E9021290
:10172000C0E904118161FFF72FFB08B1FEF78CFDC2
:101730004FF4805002A902900848FFF7A3FB08B1BC
:10174000FEF782FD00206946CDE900000348FFF75F
:10175000EDFA08B1FEF778FD06B010BD30020020AA
:1017600010B586B0434800214FF6FF7241F61F4383
:101770004FF08044CDE90411CDE90211CDE900110B
:101780008161C0E90043C0E902120161FFF7FCFA80
:1017900008B1FEF759FD4FF4805002A90290354878
:1017A000FFF770FB08B1FEF74FFD00206946CDE959
:1017B00000003048FFF7BAFA08B1FEF745FD06B061
:1017C00010BD00BF10B50A480A4BEA4C00210C229C
:1017D000C0E90043C0E90211C0E90412C0E90611E2
:1017E000FFF7D2FD18B1BDE81040FEF72DBD10BDCA
:1017F000C002002040420F00FEE7FEE7704770473E
:10180000FEF774BFB0B590B0002401A81421CDE953
:101810000B44CDE90944FEF78CFC4FF4E01002259F
:10182000012108940F904FF480300D950A910E908D
:10183000CDE9061006A8FFF7C9F818B1EFF310803C
:1018400072B6FEE74FF4806005940221CDE90340B3
:101850000F20CDE9010501A8FEF7DAFF18B1EFF37B
:10186000108072B6FEE710B0B0BD70470148FFF7B8
:1018700085BB00BF7802002070B50368174AB0F13D
:10188000804F07D0164CA04204D0904202D0154C95
:10189000A04203D14C6823F070032343B0F1804F82
:1018A00007D00F4CA04204D0904202D00D4CA04271
:1018B00003D1CC6823F4407323434E6923F08003A3
:1018C0000C688D68904243EA06030360C562846237
:1018D00001D1096911630121416170BD002C0140F2
:1018E000000400400008004010B5036A046A24F0B8
:1018F00001040462846924F0F00444EA0212826163
:1019000023F00A021143016210BD10B5036A046A94
:1019100024F010040462846924F4704444EA02321E
:10192000826123F0A00242EA0111016210BD406A07
:101930000021C185C184FFF7DCBB10B5446A206873
:10194000416994F84120212A08D111F0800105D085
:101950000020E084204600F05FF82068406994F899
:101960004210222907D110F0400004D00020E08569
:10197000204600F02AF8606C40F0100060642046B9
:10198000BDE81040FFF7B5BB0168406A09688906E9
:1019900048BFFFF72BBE0021C184016851E8051F35
:1019A000026821F0800142E80513002BF5D101689F
:1019B00051E8031F026841F0400142E80313002B85
:1019C000F5D17047406AFFF712BE016851E8031F66
:1019D000026821F4907142E80313002BF5D10168ED
:1019E00051E8051F026821F0010142E80513002BB0
:1019F000F5D1016B012909D1016851E8031F026883
:101A000021F0100142E80313002BF5D1202180F8CA
:101A10004210002101637047016851E8031F02680A
:101A200021F0C00142E80313002BF5D1202180F8FA
:101A30004110704781B090F84210222920D183686C
:101A4000B3F5805F08D10169002949D000F1280170
:101A50000A6803685B680AE0014651F8282F13B949
:101A60000369002BF5D003685B6803F07F031370F4
:101A70000A6801320A60C18D0139C185090401D0AB
:101A800001B070470168CA6822F02002CA60CA68C3
:101A900022F48072CA604A6922F001024A6120225F
:101AA00080F8422000224263036B012B21D10263A4
:101AB00051E8031F026821F0100142E80313016896
:101AC000002BF5D10A68D20606D5002200920A68DA
:101AD0000092496800910099818D01B0FFF708BB21
:101AE0000168826A49686FF35F2122F8021B8262F3
:101AF000C1E701B0FFF7EEBCB0B50446006804F1E1
:101B000008030ECB056925F4405519432A4341F2D9
:101B10000C650261C2686369AA4319431143C1603D
:101B20004169A26921F44071114341611149884220
:101B300002D0FEF709FF01E0FEF710FF192148432C
:101B4000D4E900126FF063049200B0FBF2F064225B
:101B5000B0FBF2F303FB0400322404EB0010B0FBF3
:101B6000F2F000F0F00200F00F0002EB031210445C
:101B70008860B0BD003801402DE9F0411D46904617
:101B80000F4604465E1C206800683840B84227D0E3
:101B9000002EF8D02DB1FEF7A5FDA0EB0800A8425D
:101BA000F1D9206850E8030F216820F4D07041E893
:101BB0000302002AF5D1206850E8050F216820F0C3
:101BC000010041E80502002AF5D12020002184F817
:101BD000410084F8401084F842000320BDE8F08101
:101BE0000020BDE8F08100001648FFF783BA00BF6F
:101BF000FEE7000010B5074C00F00F03044AB0F1F7
:101C0000FF3F2344C8BF83180801187010BD00BFF0
:101C100000E400E014ED00E0034900220A600A68D5
:101C20008242FCD3704700BF242C0140E0B50190F4
:101C3000044801A901224FF6FF73FFF74CFC0198FD
:101C40008CBD00BFC00200202DE9F84F9B46914695
:101C50000E46074600F088F9DDF828A038463146E0
:101C60004A465B46CDF800A000F052F938463146AE
:101C70004A465B4600F0BEF9DDF83480DDE90B54DE
:101C800010B1624800F060FD384631464A465B4676
:101C9000009500F03DF9384631464A465B4600F073
:101CA000A9F910B15A4800F04FFD0020FFF7B4FF2A
:101CB000384631464A465B4600F056F94AF0010084
:101CC00031464A465B460090384600F021F93846D6
:101CD00031464A465B4600F08DF910B14C4800F0A1
:101CE00033FD013C0025384631464A465B4600F04C
:101CF000D3F8E9B28C4209DD08F8010038463146D4
:101D00004A465B4600F086F80135ECE708F8040027
:101D1000384631464A465B4600F0A2F8384631461E
:101D20004A465B4601B0BDE8F04F00F03FB900BF46
:101D30002DE9F84F9A4693460E46074600F014F9EF
:101D40000A9831465A4653460090384600F0E0F86B
:101D5000384631465A46534600F04CF9DDF8349087
:101D6000DDE90B5410B1294800F0EEFC384631464D
:101D70005A465346009500F0CBF8384631465A464D
:101D8000534600F037F910B1214800F0DDFCDFF8D0
:101D90000C88013C0025E8B2844214DD19F80000EB
:101DA00031465A4653460090384600F0B1F838465E
:101DB00031465A46534600F01DF910B1404600F036
:101DC000C3FC0135E7E719F8040031465A4653468B
:101DD0000090384600F09CF8384631465A46534643
:101DE00000F008F910B10A4800F0AEFC3846314660
:101DF0005A46534600F034F8384631465A46534660
:101E000001B0BDE8F04F00F0D1B800BF8427000852
:101E10008B2700082DE9F8439DB2DFF8D0910E46DC
:101E200007461446104600222946C847DFF8C081FD
:101E30000020C047B6B2384601223146C8470020CC
:101E4000C047384631460022C8470020C0472046D8
:101E5000294601224B4601B0BDE8F043184700BFB8
:101E6000F8B5624E0C460546104699B20122B047BD
:101E70005F4F0020B847A4B2284601222146B04750
:101E80000020B847284621460022B04700203946A6
:101E9000BDE8F840084700BF2DE9F84F9EB20F4655
:101EA00083469246104601223146FEF716FCDFF8C3
:101EB0003C91DFF858808024BFB2E5B20DB300201A
:101EC000FFF7AAFE584639460122C8470020FFF70F
:101ED000A3FE504631460122C84750463146FEF720
:101EE000EFFB98F800100128584621EA040208BFC9
:101EF00041EA040288F8002039460022C8476C08ED
:101F0000DBE798F80000BDE8F88F00BF0803002069
:101F10002DE9F047DDF82090344C054690468020AE
:101F20001FFA83FA8FB2C6B2B6B110EA0902404670
:101F3000514618BF0122A0470020FFF76DFE28463A
:101F400039460122A0470020FFF766FE28463946A1
:101F50000022A0477008E6E7404651460122BDE84E
:101F6000F047FEF7BABB00BF2DE9F0419FB2DFF8A2
:101F70007C800D4606461446104601223946C0476D
:101F8000ADB2304601222946C0470020FFF744FE8B
:101F9000204639460022C0470020FFF73DFE30466C
:101FA000294600224346BDE8F04118472DE9F84391
:101FB0009FB2DFF838800D460646144610460022D0
:101FC0003946C047DFF828900020C847A9B23046FC
:101FD0000122C0470020C847204639460122C04799
:101FE00000204946BDE8F843084700BFDB0600086B
:101FF000191C00082DE9F0479CB289468246154617
:102000001046012298462146FEF767FB0020002675
:10201000FFF702FE1FFA89F7504601223946FEF704
:102020005CFB0020FFF7F8FD28462146FEF748FB41
:1020300050B10136FF2EF7D1504649462A46434655
:10204000FFF7B4FF012408E050463946002200247F
:10205000FEF743FB0020FFF7DFFD2046BDE8F087D9
:10206000ADF5087DFEF74CFBFFF7CCFBFFF7E2FA7E
:10207000FFF7C0FAFFF7A6FBFFF772FBFFF73EFB87
:10208000CE48FEF7D7FECE48FEF7D4FECD4FCE4D5C
:1020900000240026B6F5C87F09D0BB19B85904330F
:1020A0000ECB00F019FA00B92C701036F2E7287840
:1020B00010B1C6A000F048FB0024B4F5C87F07D0DB
:1020C0003B19385904330ECB00F0CEF91034F4E745
:1020D000C34E00244FF00508192C15D0E0B207EBD1
:1020E0000413B0FBF8F0043300EB800006EB0011A2
:1020F000201AC0B201EB001520010ECB3858009514
:1021000000F078F90134E7E7306AD6F808E1D6F84C
:102110001811D6F82821B846D6F83831D6F84841F3
:10212000D6F85851D6F86871D6F878C1D6F8A89084
:10213000D6F8B8A0D6F8C8B08790306B8690306CCF
:102140008590306D8490306E8390306F8290D6F899
:1021500080008190D6F890008090D6F8A0007F9003
:10216000D6F8B0007E90D6F8C0007D90D6F8D000AA
:102170007C90D6F8E0007B90D6F8F0007A90D6F804
:1021800000017990D6F810017890D6F82001779068
:10219000D6F830017690D6F840017590D6F8500107
:1021A0007490D6F860017390D6F870017290D6F8EA
:1021B0008001719070696E90706A6D90706B6C9018
:1021C000706C6B90706D6A90706E6990706F6890B3
:1021D000D6F884006790D6F894006590D6F8A400ED
:1021E0006490D6F8B4006390D6F8C4006290D6F834
:1021F000D4006190D6F8E4006090D6F8F4005F90C7
:10220000D6F804015E90D6F814015D90D6F824014A
:102210005C90D6F834015B90D6F844015A90D6F819
:1022200054015990D6F864015890D6F8740157902B
:10223000D6F8840156903068709070686690B068E7
:10224000559030696F90B0695490B06A5390B06BFC
:102250005290B06C5190B06D5090B06E4F90B06F86
:102260004E90D6F888004D90D6F898004C90D6F84D
:10227000D8004B90D6F8E8004A90D6F8F80049907C
:10228000D6F88801489042A8CDE940E139A9BCC000
:10229000CDF81CC1534CDDE96F3247464FF00508BD
:1022A0004D9838904C9881E8010E4B984E493D90DE
:1022B0004A983E9049983F90559830905498319064
:1022C000539832905298339051983490509835905A
:1022D0004F9836904E9837905D9828905C9829904A
:1022E0005B982A905A982B9059982C9058982D903A
:1022F00057982E9056982F9065982090649821902A
:102300006398229062982390619824906098259019
:102310005F9826905E9827906E9818906D98199007
:102320006C981A906B981B906A981C9069981D90F5
:1023300068981E9067981F907798109076981190E3
:1023400075981290749813907398149072981590D1
:1023500071981690669817907F9808907E980990CB
:102360007D980A907C980B907B980C907A980D90B1
:1023700079980E9078980F908798009086980190A1
:102380008598029084980390839804908298059091
:102390008198069080980790204600F001F9204629
:1023A000FDF7D2FE82B211482146FFF7E7F8104848
:1023B0008021FEF78AF900248EE600BF300200205B
:1023C0007802002010000020A001002032352054A7
:1023D0006573742053756363636573730000000055
:1023E0000C0300209C04002092270008C00200205B
:1023F000000C0140F0B58DB005AC08250026602723
:10240000CDE90076CDE90254FFF71EFC9DF81900D6
:102410009DF818109DF815209DF817409DF816306E
:1024200000012401120140EA01309DF81C1044EA29
:1024300003339DF81B4040EA1110129943EA14132C
:10244000A0F50020A3F5002388609DF814004B60E0
:1024500042EA00309DF81A2040EA1210A0F5002050
:1024600008600DB0F0BD00002DE9F04F85B00746C3
:10247000FF204FF0600BDFF85CA00DF113084FF068
:1024800001091C4615460E468DF813001A20CDE9A9
:1024900000B03846CDE90298D047A02031462A4600
:1024A00023468DF813001B20CDE900B03846CDE956
:1024B0000298D047102031462A4623468DF8130053
:1024C0001D20CDE900B03846CDE90298D04705B0CF
:1024D000BDE8F08F311D00082DE9FC411C46154672
:1024E0000E460746FFF740FD602031462A46234648
:1024F00000903846FFF70CFD384631462A46234601
:10250000FFF778FD10B1254800F01EF9392031465B
:102510002A46234600903846FFF7FAFC38463146F3
:102520002A462346FFF766FD10B11C4800F00CF95F
:102530003220FFF771FB384631462A462346FFF723
:1025400013FD612031462A46234600903846FFF7A6
:10255000DFFC384631462A462346FFF74BFD10B1D3
:102560000E4800F0F1F8384631462A462346FFF778
:1025700093FC8046384631462A462346FFF770FCD6
:10258000384631462A462346FFF710FDA8F11000D1
:10259000B0FA80F04009BDE8FC8100BF8B2700083D
:1025A0000FB4084B10B504A902AA039800F01CF858
:1025B000044602A9002000F0C1F8204610BC5DF8D6
:1025C00014FB00003D27000802E008C8121F08C1E4
:1025D000002AFAD170477047002001E001C1121FA4
:1025E000002AFBD1704700002DE9FF4F89B09B46C0
:1025F0000446002506E025280BD05A460B99904743
:10260000641C6D1C20780028F5D10DB02846BDE86B
:10261000F08F0027B8460122474900E0074314F82D
:10262000013F203B02FA03F00842F7D120782E2820
:1026300019D114F8010F47F004072A280ED06FF0C3
:102640002F022078A0F1300109290CD808EB88016D
:1026500002EB410100EB0108641CF2E70A98641CDC
:1026600050F8048B0A9020780028CED0642808D037
:10267000692806D075281ED05A460B9990476D1CC4
:1026800058E00A994FF00A0901C90A91002802DAB4
:1026900040422D2102E0390504D52B218DF8201070
:1026A000012103E0F90704D02021F7E78A4608AEAC
:1026B0000DE00021FAE70A994FF00A0901C90A91D1
:1026C000F7E74946FDF747FD303106F8011D0028C0
:1026D000F7D1ADEB060000F12009780701D44FF0E7
:1026E0000108C84502DDA8EB090000E00020804693
:1026F000002706E008A85A46C05D0B9990476D1C5C
:102700007F1C5745F6DB04E030205A460B99904772
:102710006D1CB8F10001A8F10108F5DC05E016F820
:10272000010B5A460B9990476D1CB9F10001A9F1B4
:102730000109F4DC641C65E7092801000A68531CE0
:102740000B6010707047000010B5044601E0FFF701
:102750006DFA14F8010B04490028F8D1BDE81040C7
:102760000A20FFF763BA000000000020000000000C
:102770000000000001020304060708090000000031
:1027800001020304446576696365204E6F2041436E
:102790004B005520256420256420256420256420D5
:1027A00025642025642025642025642025642025B7
:1027B0006420256420256420256420256420256468
:1027C000202564202564202564202564202564209C
:1027D00025642025642025642025642025640A566C
:1027E000202564202564202564202564202564207C
:1027F0002564202564202564202564202564202567
:102800006420256420256420256420256420256417
:10281000202564202564202564202564202564204B
:1028200025642025642025642025640A572025641A
:10283000202564202564202564202564202564202B
:102840002564202564202564202564202564202516
:1028500064202564202564202564202564202564C7
:1028600020256420256420256420256420256420FB
:1028700025642025642025640A000000A0280008A3
:1028800000000020A8010000A8010008102900088D
:10289000A8010020E00A0000D82500080000000080
:1028A000120001120104221009200924F40000087A
:1028B0000140400C11085201086110D20210D204EC
:1028C00010D20810521010D28050D28050D28050B6
:1028D000D28050A28050820C98D20110D20210D225
:1028E0000410D208106150D20250D20250D20250CD
:1028F000D20250D20250D20450D20450D20450D24C
:10290000045092045031EC0004000000000000006C
:04000005080000ED02
:00000001FF
